:020000040800F2
:100000001007002089010008FD030008FF03000815
:1000100003040008070400080B04000800000000A7
:100020000000000000000000000000000F040008B5
:100030001104000800000000130400081504000863
:10004000A3010008A3010008A3010008A301000800
:10005000A3010008A3010008E3040008A3010008AD
:10006000A3010008F5040008A3010008A30100088B
:10007000A3010008A3010008A30100081905000856
:10008000A3010008A3010008A3010008A3010008C0
:10009000A3010008A3010008A30100080705000848
:1000A000A3010008A3010008A3010008A3010008A0
:1000B000170400086B040008A3010008A30100084E
:1000C000A3010008A3010008A3010008A301000880
:1000D00091040008A1050008F5050008A301000827
:1000E000A3010008AB040008A301000800F002F817
:1000F00000F03AF80AA090E8000C82448344AAF188
:100100000107DA4501D100F02FF8AFF2090EBAE885
:100110000F0013F0010F18BFFB1A43F0010318473B
:100120002055000040550000103A24BF78C878C11F
:10013000FAD8520724BF30C830C144BF04680C60ED
:10014000704700000023002400250026103A28BF35
:1001500078C1FBD8520728BF30C148BF0B60704739
:100160001FB51FBD10B510BD03F060FF1146FFF7AE
:10017000F7FF00F029F803F07EFF03B4FFF7F2FF6A
:1001800003BC03F081FF000009488047094800478D
:10019000FEE7FEE7FEE7FEE7FEE7FEE7FEE7FEE737
:1001A000FEE7FEE704480549054A064B7047000094
:1001B000DB110008ED0000081001002010070020EE
:1001C000100300201003002000F0F6FE002080F352
:1001D000108800BF64208449086002E0FF2003F01B
:1001E000F4FE814800680028F8D100F09CFC00F083
:1001F00057FF64207C49086002E0FF2003F0E5FE21
:10020000794800680028F8D153E0FF2003F0DDFEB4
:1002100000F0B5FA00F053FE00F07AFE00F08DFE1B
:1002200000F09DFE00F0B9FE00F06EFB6F4989887A
:1002300088B200F0D4FE6E4908600846006840F6B7
:10024000B83188421DDB6A4800684EF6602188425A
:1002500017DCFF2003F0B9FE4FF40041654802F0BF
:1002600076F802226321002000F0ADFC60480068AF
:1002700042426621002000F0A6FC01205E49088071
:1002800017E05D480088A0B100205B490880FF208E
:1002900003F09BFE02226321002000F094FC002268
:1002A0006621104600F08FFC4FF40041514802F0E7
:1002B00050F8AAE710B500214FF0006001F045F8B2
:1002C00010BD10B50121052002F0B6FA0121092068
:1002D00002F0B2FA0121112002F0AEFA0121212030
:1002E00002F0AAFA0121412002F0A6FA01218120A0
:1002F00002F0A2FA012140F2011002F09DFA012160
:10030000084602F099FA10BD1FB50121084602F017
:10031000A0FA4FF0804002F01DFD4FF0804003F046
:100320007DF942F20F70ADF808003720ADF80400F7
:100330000020ADF80A00ADF8060001A94FF080409A
:1003400002F0DCFD0121880703F0FAFB01221146CF
:10035000900703F04AF90121880703F02BF91C20CC
:100360008DF8000001208DF8010003208DF80200B7
:1003700001208DF80300684600F0B5FF1FBD10B5E1
:1003800002F0ECF84FF4803002F008F902F045F981
:100390000446012C25D1102001F002FC022001F0BE
:1003A000EBFB002002F07FF9002002F08EF9A002A2
:1003B00002F082F94FF4A011200402F057F9012055
:1003C00002F060F900BF392002F00BF90028FAD0E2
:1003D000022002F05AF900BF02F060F90828FBD1B0
:1003E00001E000BFFEE710BD200000209C000020BF
:1003F00018000020001001401C000020704700BFC2
:10040000FEE700BFFEE700BFFEE700BFFEE7704764
:1004100070477047704710B50121880703F093FBC0
:1004200010B30121880703F09FFB7348006820B1D7
:1004300071480068401E7049086070480078401C90
:100440006E4908700846007864280DDB00200870AB
:1004500000216B4803F0AEF80021694803F03EFB31
:100460000121674803F0A6F810BD10B501216548C9
:1004700003F069FB58B10121624803F075FB624843
:10048000007820B160480078401E5F49087010BDB8
:1004900010B571215D4802F032FC012804D14FF6FD
:1004A000FF715A4802F028FC10BD10B5022002F07E
:1004B000B1FAA0B14FF4003001F055FB012002F079
:1004C00035F810B1012002F03BF802F075FA022075
:1004D00002F0B0FA02F070FA01204D49087010BD28
:1004E000704710B5012001F02DFB10B1012001F083
:1004F0003AFB10BD10B5082001F024FB10B1082014
:1005000001F031FB10BD10B5202001F01BFB10B134
:10051000202001F028FB10BD10B54FF4003001F091
:100520007AFA38B14FF4803001F089FA4FF4003094
:1005300001F085FA10BD10B5364801F06CFA48B1EB
:100540000021354803F036F8344801F078FA314894
:1005500001F075FA10BD10B52E4801F05CFA48B1F3
:1005600000212D4803F026F82C4801F068FA2948AC
:1005700001F065FA10BD10B540F22771284803F06C
:10058000B7FC18B10021264803F02EFC40F225519B
:10059000234803F0ADFC10B1214803F029FC10BD45
:1005A00010B540F227711F4803F0A2FC18B10021DA
:1005B0001C4803F019FC40F225511A4803F098FC3E
:1005C00010B1184803F014FC10BD10B540F22551CD
:1005D000154803F08DFC10B1134803F009FC40F2FC
:1005E0002771114803F084FC18B100210E4803F074
:1005F000FBFB10BD704700002000002025000020FC
:10060000002C01400004004026000020003800407B
:100610000000002000000210000C0040000001104B
:100620000050004000380140004C004000B591B03F
:100630000121084602F0F3F80121480202F0FCF81B
:100640006E4801F0E1F86E4806906E480790002071
:1006500008900820099000200A9080200B9040000C
:100660000C9080000D9020200E9000020F90002032
:10067000109006A9614801F069F94FF4804002F03A
:100680003FF85F484C3800F097FE002001900120B1
:100690008DF808008DF809004FF4602003900020C9
:1006A000049008208DF8140001A955484C3800F03A
:1006B000AAFE06230122002151484C3800F03BFFDE
:1006C0000623022201214E484C3800F034FF062355
:1006D000032205214A484C3800F02DFF062304224E
:1006E000114647484C3800F026FF06230522082112
:1006F00043484C3800F01FFF06231A46112140489A
:100700004C3800F018FF0623072202213C484C38E1
:1007100000F011FF06230822032139484C3800F06D
:100720000AFF012001F02CF8012135484C3800F077
:10073000A1FE012132484C3800F091FE30484C387F
:1007400000F0AFFE00BF2E484C3800F0AFFE00288E
:10075000F9D12B484C3800F0B3FE00BF28484C3884
:1007600000F0B3FE0028F9D1012125484C3800F0F3
:10077000B6FE0121214801F014F911B000BD10B5F9
:100780002148008804281DDA1F480088401C1E49A3
:10079000088000200AE01D4951F82010194A32F85B
:1007A00010201144194A42F82010401C0628F2DBA0
:1007B0000A2402E0FF2003F008FC201EA4F101043B
:1007C000F8D100BF10480088042815DB00200E492E
:1007D000088000BF0EE00D4951F8201040F2393278
:1007E0005143090B0A4A42F820100021074A42F8F7
:1007F0002010401C0628EEDB10BD0000080002405F
:100800004C240140780000204E0000208800002089
:100810009C00002008B50121374801F0BCFD1020E4
:100820008DF80300ADF8000001208DF80200694644
:10083000324801F0DFFC1021304801F08AFD102021
:100840008DF803008020ADF8000001208DF8020033
:1008500069462A4801F0CEFC04208DF803000820E8
:10086000ADF8000001208DF802006946234801F030
:10087000C1FC00208DF803003320ADF800000120FA
:100880008DF8020069461E4801F0B4FC00208DF886
:1008900003000120ADF800008DF8020069461748FA
:1008A00001F0A8FC10208DF80300C002ADF8000094
:1008B00001208DF802006946124801F09BFC482097
:1008C0008DF803004FF48040ADF8000001208DF852
:1008D000020069460B4801F08DFC48208DF80300AA
:1008E0000220ADF8000001208DF80200694603489F
:1008F00001F080FC08BD000000023000000C014047
:10090000000801400010014010B51A480068012895
:100910000CD119480068012808D11848006801283E
:1009200004D18021164801F012FD03E08021144813
:1009300001F00FFD10BD08B50121082001F07CFF7A
:100940008020ADF8000010208DF8030003208DF802
:10095000020069460A4801F04DFC8021084801F078
:10096000F6FC08BD8020064914310860091F0860A4
:100970007047000004000020080000201000002044
:10098000000C014000B585B00020ADF800004FF428
:100990008270ADF802000020ADF804000220ADF82E
:1009A00006000120ADF808004002ADF80A0028203A
:1009B000ADF80C000020ADF80E000720ADF81000D7
:1009C0006946EE4802F066F80121EC4802F007F9AA
:1009D00005B000BD08B50121880301F03AFF0121EF
:1009E000082001F029FF4FF48050ADF800000120ED
:1009F0008DF8020010208DF803006946E04801F0F0
:100A0000F9FB4FF40050ADF8000018208DF80300FA
:100A10006946DB4801F0EEFB4FF48040ADF8000082
:100A200048208DF803006946D54801F0E3FB4FF4F8
:100A30000040ADF8000018208DF803006946D0484A
:100A400001F0D8FB08BD10B5044600BF0221CB4819
:100A500002F049F90028F9D02146C84802F0F0F820
:100A600000BF0121C54802F03EF90028F9D0C34873
:100A700002F0E8F8C0B210BD00EBC00202EB0012B9
:100A80004FF6FF7303EA420100BF0A1EA1F1010302
:100A900099B2FAD1704770B50446002521E004F000
:100AA000800028B14FF40041B54801F050FC04E04B
:100AB0004FF40041B24801F04CFC0220FFF7DCFF8C
:100AC0004FF40051AE4801F042FC6006040E0220D3
:100AD000FFF7D2FF4FF40051A94801F03AFC681C1F
:100AE000C5B2082DDBDB70BD70B50024002516E013
:100AF0006006040E4FF40051A14801F028FC0220CA
:100B0000FFF7BAFF4FF480419D4801F006FC044313
:100B10004FF400519A4801F01CFC681CC5B2082D26
:100B2000E6DB204670BD10B5FFF754FFFFF72AFF44
:100B300010BD70B505460C464FF48051904801F049
:100B400008FC0320FFF798FF2846FFF77CFF200EE4
:100B5000FFF779FFC4F30740FFF775FFC4F30720E1
:100B6000FFF771FFE0B2FFF76EFF4FF4805184484A
:100B700001F0EDFB70BD70B505464FF48051804823
:100B800001F0E7FB0320FFF777FF05F07F00FFF799
:100B90005AFF0020FFF757FF04460020FFF753FFDE
:100BA00000EB04240020FFF74EFF00EB042400209C
:100BB000FFF749FF00EB04244FF48051704801F027
:100BC000C6FB204670BD70B504460D46164604B1FE
:100BD00070BD45F080003146FFF7ABFF00BFF7E77F
:100BE00070B504460D461646012C01D0002070BD9C
:100BF00005F07F00FFF7BFFF06463046F7E710B568
:100C0000604A1B210020FFF7DEFF40F207121A2185
:100C10000020FFF7D8FF5C4A0A210020FFF7D3FF2E
:100C20004FF0101204210020FFF7CDFF0022172102
:100C30001046FFF7C8FF40F2CF7218210020FFF7DF
:100C4000C2FF43F2322219210020FFF7BCFF4FF010
:100C5000005205210020FFF7B6FF4FF00052062199
:100C60000020FFF7B0FF4FF4807233210020FFF720
:100C7000AAFF002237211046FFF7A5FF05225221C7
:100C80000020FFF7A0FF0C2250210020FFF79BFF60
:100C90003E4A07210020FFF796FF3D4A0921002028
:100CA000FFF791FF3B4A08210020FFF78CFF4FF42C
:100CB0007A725E210020FFF786FF4FF00122562155
:100CC0000020FFF780FF4FF0012254210020FFF7A2
:100CD0007AFF052252210020FFF775FF05225021DF
:100CE0000020FFF770FF052251210020FFF76BFF66
:100CF000022263210020FFF766FF274A0A21002015
:100D0000FFF761FF47F6FF725D210020FFF75BFFF1
:100D100042F210725E210020FFF755FF1F4A5F214B
:100D20000020FFF750FF1E4A60210020FFF74BFF15
:100D30004FF0004261210020FFF745FF6FF00042B5
:100D400062210020FFF73FFF164A56210020FFF7DF
:100D50003AFF144A54210020FFF735FF124A582168
:100D60000020FFF730FF00225A211046FFF72BFF2B
:100D7000002264211046FFF726FF10BD0038004016
:100D8000000C014001000300000100244E014E014F
:100D9000D9800001F081000100010006801A0600E0
:100DA000701101002003C8001E00200310B50121AE
:100DB000C80201F04EFD4FF4C07003F0E8F87F2048
:100DC00003F0EEF87F2003F000F97F2003F003F931
:100DD00010BD2DE9F04F97B083468A46002015904C
:100DE000149013909348129093481190934911983E
:100DF00004F062F81090924880884FF4960191FBBD
:100E0000F0F4204604F0A4F91490584604F0B8F920
:100E10000646149904F0F9FA0446584604F0B0F96D
:100E20000646129904F0F4F90546214604F0B2F89A
:100E30001590119804F014F806460F46504604F039
:100E40000FF8CDE904011299159804F0A3F8019068
:100E500004F006F8CDE9020103F084F98046DDE9EB
:100E6000042303F01BFCCDE908014FF07E501099DC
:100E700004F090F8804603F0F3FFCDE90601DDE9C8
:100E8000082303F04FFB02460B46CDE90A01002080
:100E90006C4903F003FC32463B46CDE90C0103F0FC
:100EA000F5FE0022684BCDE90E0103F03BFB044642
:100EB00003F006FB1390139817B0BDE8F08F2DE9EF
:100EC000F04100246149204604F0A2F90646604939
:100ED00088686049FFF77DFF07465F4904F098F98D
:100EE0000546314603F0E8FF04465C49204604F01D
:100EF0005BF904D35A49204604F056FA03D2002085
:100F00005849086002E0012056490860BDE8F081B8
:100F10002DE9F0414E49086804F032F9804603F0AB
:100F20009FFF0646504A514B03F0A6FD044603F0CE
:100F300049FD4F490860BDE8F0814D480068B0F5B3
:100F4000E16F08DD4A480068B0F52F6F03DA012031
:100F50004849086002E0002046490860704710B523
:100F600043480068B0F52F6F0BDD2021424801F0A7
:100F7000F0F91021404801F0EAF901203F490860EA
:100F80000AE020213C4801F0E2F910213A4801F042
:100F9000E0F900203949086010BD3848006838B9C8
:100FA00033480068642803DA00203549086002E00D
:100FB000012033490860704710B5FFF7E0F9FFF7EB
:100FC00080F9FFF777F9FFF725FCFFF79DF94FF45C
:100FD00000412C4801F0BDF9FFF728FB10BD2DE9B9
:100FE000F05F82464FF0000B504603F031FD804623
:100FF000254A264B03F040FD0646254A254B03F0C3
:1010000045FE044603F05CFA83462349584604F043
:10101000CBF802D2DFF880B006E02049584604F051
:10102000C3F901D2DFF874B0584604F075F8BDE892
:10103000F09F000000401C46339388430000C841E5
:10104000780000200000F03F0000E03FA4707D3FEA
:101050009C00002000205A450AD7233C000020C2F3
:10106000000090420800002014AE47E17A141B40B3
:101070001400002004000020000C01400C0000209F
:101080001000002000100140E17A14AE47613340A7
:10109000CDCCCCCCCC6C744000803B4500606A4722
:1010A00010B5002201211046FFF78DFD00221146E8
:1010B0000120FFF795FD0E49884212D1FFF79FFDF1
:1010C00064200C49086002E0FF2002F07EFF09481E
:1010D00000680028F8D14FF40041074801F037F9C3
:1010E00004E04FF40041044801F033F910BD000062
:1010F0003137363420000020001001400CB50020AC
:10110000019000906C48006840F480306A490860A3
:1011100000BF6948006800F4003000900198401C4E
:101120000190009818B90198B0F5A06FF1D162480C
:10113000006800F4003010B10120009001E00020B0
:1011400000900098012843D15C48006840F01000EE
:101150005A4908600846006820F003000860084605
:10116000006840F0020008605348406852494860F7
:101170000846406848600846406840F4806048601F
:101180000846406820F47C1048600846406840F4F7
:10119000E81048600846006840F08070086000BFB2
:1011A0004548006800F000700028F9D042484068C7
:1011B00020F00300404948600846406840F00200C3
:1011C000486000BF3C48406800F00C000828F9D196
:1011D0000CBD10B5FFF792FF10BD10B53648006882
:1011E00040F001003449086008464068344908402E
:1011F0003149486008460068324908402E49086075
:101200000846006820F4802008600846406820F402
:10121000FE0048604FF41F008860FFF7DAFF4FF0D0
:1012200000602949086010BD10B50021002000228F
:10123000214B5B6803F00C0121B1042906D0082979
:1012400028D107E0214B224C236027E01F4B204C84
:10125000236023E0184B5B6803F47010164B5B6847
:1012600003F48032022303EB904022B9194B43432D
:10127000174C23600DE0104B5B6803F4003323B17F
:10128000144B4343124C236003E0104B4343104C78
:10129000236003E00D4B0E4C236000BF00BF064BE4
:1012A0005B68C3F303130C4CE15C094B1B68CB4038
:1012B000074C236010BD00000010024000200240D7
:1012C0000000FFF8FFFFF6FE08ED00E000127A00D4
:1012D0005000002000093D00540000203149014326
:1012E000314A1160704770B5002100230F22C47885
:1012F00004B32D4C246804F4E064C4F5E064210ACE
:10130000C1F10403CA40447804FA03F1847814401C
:1013100021430901254C0678A155047804F01F05E6
:101320000124AC4005786D11AD0005F1E025C5F84C
:10133000004109E0047804F01F050124AC401C4D75
:101340000678761145F8264070BD1A4A0A400243D5
:10135000154B1B1F1A60704739B1134A121D1268D2
:101360000243114B1B1D1A6006E00F4A121D126842
:1013700082430D4B1B1D1A607047042808D14FF0A3
:10138000E021096941F004014FF0E022116107E01A
:101390004FF0E021096921F004014FF0E0221161D2
:1013A000704700000000FA050CED00E000E400E0EA
:1013B00080E100E080FFFF1F10B50446FA48844238
:1013C00008D10121401501F051FA0021601501F00A
:1013D0004DFA17E0F548844208D10121001501F0CB
:1013E00045FA0021201501F041FA0BE0F048844253
:1013F00008D10121C80301F039FA00214FF400405F
:1014000001F034FA10BD30B50246002000235068C8
:10141000E84C20400D790C6844EA052420435060D4
:101420009068E54C2040D1E902542C434D7944EAC0
:10143000450420439060D06A20F470000C7C641E48
:10144000E4B2234340EA0350D06230BD0021016082
:10145000017141718160C16001210174704721B146
:10146000826842F00102826003E0826822F0010299
:101470008260704721B1826842F48072826003E02A
:10148000826822F480728260704710B50023CBB26C
:101490001AB144681C43446002E044689C434460C1
:1014A00010BD816841F0080181607047014600204D
:1014B0008A6802F008020AB1012000E000207047AB
:1014C000816841F0040181607047014600208A680C
:1014D00002F004020AB1012000E00020704721B1AF
:1014E000826842F4A002826003E0826822F4A002D3
:1014F00082607047014600208A6802F480020AB1C7
:10150000012000E00020704710B50A4600210023AA
:10151000416821F46041531E41EA4331416010BDEE
:1015200021B1426842F40062426003E0426822F462
:10153000006242607047F0B504460D46002000216D
:10154000092D11DDE068A5F10A0606EB460707261E
:1015500006FA07F18843A5F10A0606EB460603FAE8
:1015600006F10843E0600CE0206905EB450707261B
:1015700006FA07F1884305EB450603FA06F108432E
:101580002061072A0FDA606B561E06EB86071F26BE
:1015900006FA07F18843561E06EB860605FA06F1A1
:1015A0000843606322E00D2A0FDA206BD61F06EB9A
:1015B00086071F2606FA07F18843D61F06EB860624
:1015C00005FA06F10843206310E0E06AA2F10D0677
:1015D00006EB86071F2606FA07F18843A2F10D06DF
:1015E00006EB860605FA06F10843E062F0BD21B17C
:1015F000826842F48012826003E0826822F48012E2
:10160000826070470146C86C80B2704766484C30B3
:101610000068704721B1426842F48062426003E092
:10162000426822F480624260704721B1426842F40D
:101630008052426003E0426822F480524260704768
:101640000A460021816821F4E0411143816070471E
:1016500021B1826842F40042826003E0826822F491
:1016600000428260704721B1826842F402128260B7
:1016700003E0826822F40212826070470146002073
:101680008A6802F400120AB1012000E000207047CD
:10169000F0B504461546002000220026092911DD78
:1016A000E068A1F10A0707EB470C072707FA0CF2DD
:1016B0009043A1F10A0707EB470703FA07F210432B
:1016C000E0600CE0206901EB410C072707FA0CF2FF
:1016D000904301EB410703FA07F210432061A06B2E
:1016E000C0F30156EF1C06F1010CA7EB0C0707EB4A
:1016F000870C1F2707FA0CF29043EF1C06F1010C30
:10170000A7EB0C0707EB870701FA07F21043A0636A
:10171000F0BD10B50A4600210023816B21F4401171
:10172000531E41EA0351816310BD08B500230093A5
:101730000090009B0B440093009B1A6008BD08B505
:10174000024600200090009201F12800009B1844FE
:1017500000900098006880B208BD0A4600214168E8
:10176000164B1940114341607047416282627047D5
:101770000A460021416821F01F0111434160704772
:1017800040B109490831096841F40001064A0832AC
:10179000116007E004490831096821F40001024A98
:1017A0000832116070470000002401400028014009
:1017B000003C0140FFFEF0FFFDF7F1FFFFFD3FFFA2
:1017C0000246002013680B400BB1012000E000200E
:1017D0007047CA430260704770B50246002000237C
:1017E00000240B125568CEB205EA060415681D40A8
:1017F00015B10CB1012000E0002070BD00220A12DA
:10180000D34303607047000001684FF6FE72114039
:1018100001600021016041608160C1608D498842A2
:1018200008D18C490839496841F00F01894A083AC2
:1018300051608AE087491431884208D185490839C6
:10184000496841F0F001834A083A51607DE08149DE
:101850002831884208D17F490839496841F47061CC
:101860007C4A083A516070E07A493C31884208D19C
:1018700078490839496841F47041764A083A51601C
:1018800063E074495031884208D172490839496887
:1018900041F470216F4A083A516056E06D49643155
:1018A000884208D16B490839496841F47001694A96
:1018B000083A516049E067497831884208D1654962
:1018C0000839496841F07061624A083A51603CE069
:1018D0006149884206D1011F096841F00F01021FCA
:1018E000116032E05C491431884208D15A49091F1D
:1018F000096841F0F001584A121F116025E056496D
:101900002831884208D15449091F096841F470619F
:10191000514A121F116018E04F493C31884208D1EA
:101920004D49091F096841F470414B4A121F11606B
:101930000BE049495031884207D14749091F0968DE
:1019400041F47021444A121F1160704710B5002203
:10195000026847F6F0739A430C6A8B6823430C695C
:1019600023434C6923438C692343CC6923434C6A4A
:1019700023438C6A23431A430260CB6843600B689D
:1019800083604B68C36010BD0021016041608160CD
:10199000C160016141618161C16101624162816235
:1019A000704721B1026842F00102026004E002685F
:1019B0004FF6FE731A40026070471AB103680B437A
:1019C000036002E003688B43036070474160704727
:1019D0000146486880B2704701460020002201F0AD
:1019E00080531BB11C4B083B1A6802E0194B083BA3
:1019F0001A6802EA01030BB1012000E000207047E1
:101A000000F0805119B11449091F086002E0114922
:101A100008394860704701460020002201F08053D9
:101A20001BB10D4B083B1A6802E00A4B083B1A68D1
:101A300002EA01030BB1012000E00020704700F032
:101A4000805119B10449091F086002E001490839B1
:101A500048607047080002400804024000204449E2
:101A60000860091D0860091D0860091D08604148DB
:101A70003F4914310860704700213D498279002AAE
:101A80003AD00A46126803689A430B461A600A1D48
:101A9000126803689A430B1D1A60027911440A68A0
:101AA00003681A430A60324A0832126803689A438C
:101AB0002F4B08331A601A1D126803689A432C4B87
:101AC0000C331A604279102A0ED11A1F126803686B
:101AD0001A43274B08331A601A1D126803681A4309
:101AE000234B0C331A600DE02149427911440A68F6
:101AF00003681A430A6005E0027911440A68036822
:101B00009A430A6070470021016001710C21417104
:101B10000021817170471649103109680143144A48
:101B200010321160704701460020114A14321268C9
:101B30000A400AB1012000E0002070470C4914312E
:101B400008607047014600200022094B1B6803EA29
:101B50000102074B14331B680B4013B10AB101207B
:101B600000E000207047024914310860704700000F
:101B700000040140FFFF0F0001460020FE4A1068EC
:101B800000F03800084310607047FB49096821F0F5
:101B90000801F94A11601146096801431160704754
:101BA000F549096821F01001F34A116011460968EE
:101BB000014311607047F148EF494860F0484860C0
:101BC0007047EE48EC494860ED4848607047EA4885
:101BD000006940F08000E84908617047E648006904
:101BE00040F08000E449086170470420E249C96878
:101BF00001F0010109B101200EE0DF49C96801F0DF
:101C0000040109B1022007E0DB49C96801F01001B5
:101C100009B1032000E00420704700B50246042308
:101C2000FFF7E3FF034603E0FFF7DFFF0346521E23
:101C3000012B01D1002AF7D102B90523184600BDB6
:101C400030B5044604254FF43020FFF7E6FF054683
:101C5000042D17D1C848006940F00200C649086148
:101C600008464461006940F0400008614FF43020AC
:101C7000FFF7D3FF0546C048006941F6FD710840F3
:101C8000BD490861284630BD10B504244FF430200A
:101C9000FFF7C3FF0446042C16D1B748006940F093
:101CA0000400B54908610846006940F04000086139
:101CB0004FF43020FFF7B1FF0446AF48006941F60A
:101CC000FB710840AC490861204610BD00B50246D2
:101CD0000423FFF78AFF034603E0FFF786FF03466E
:101CE000521E012B01D1002AF7D102B90523184653
:101CF00000BD10B504244FF43020FFF7E7FF044681
:101D0000042C16D19C48006940F004009A490861EF
:101D10000846006940F0400008614FF43020FFF7AA
:101D2000D5FF04469448006941F6FB71084092498A
:101D30000861204610BD00208F49C96901F00201E9
:101D400009B1012000E00020704730B5A52504242A
:101D5000FFF7F1FF00B100254FF43020FFF75DFFE2
:101D60000446042C3AD185488349886084488860B9
:101D70000846006940F0200008610846006940F00C
:101D8000400008614FF43020FFF747FF0446042C61
:101D90001BD17948006941F6DF7108407649086136
:101DA0000846006940F01000086176480580E002AE
:101DB000FFF733FF0446052C10D06F48006941F649
:101DC000EF7108406C49086108E0052C06D06A48AC
:101DD000006941F6EF71084067490861204630BD4F
:101DE00078B506460C46042500200090E802FFF76F
:101DF00014FF0546042D24D15F48006940F001001E
:101E00005D4908613480E802FFF707FF0546042DAD
:101E100010D1B01C0090200C00990880E802FFF758
:101E2000FCFE05465448006941F6FE7108405249DF
:101E3000086106E05048006941F6FE7108404E49CD
:101E40000861284678BD70B504460D460426F002A8
:101E5000FFF7E3FE0646042E11D14748006940F023
:101E60000100454908612580F002FFF7D6FE0646CD
:101E70004148006941F6FE7108403F49086130461B
:101E800070BD70B505460E460424E002FFF7C5FE9E
:101E90000446042C17D1394837498860384888608F
:101EA0000846006940F0100008612E80E002FFF74C
:101EB000B4FE0446052C06D02F48006941F6EF71A8
:101EC00008402D490861204670BD2DE9F0430446C5
:101ED0004FF6FF763746B046B1460425E443E6B2F6
:101EE000C4F30727C4F307484FEA1469E802FFF771
:101EF00094FE0546042D49D120481F49886020489A
:101F000088600846006940F010000861FF2E06D086
:101F10001C4808300680E802FFF77FFE0546042DC6
:101F200008D1FF2F06D017480A300780E802FFF7D4
:101F300074FE0546042D0AD1B8F1FF0F07D01148F1
:101F40000C30A0F80080E802FFF767FE0546042D7C
:101F50000AD1B9F1FF0F07D00A480E30A0F800905F
:101F6000E802FFF75AFE0546052D0FD0024800692A
:101F700041F6EF71084007E0002002402301674569
:101F8000AB89EFCD00F8FF1F664908612846BDE820
:101F9000F08330B5054604244FF43020FFF73DFEB2
:101FA0000446042C41D160485E4988605F488860DF
:101FB0000846006940F0200008610846006940F0CA
:101FC000400008614FF43020FFF727FE0446042C40
:101FD00022D15448006941F6DF7108405149086137
:101FE0000846006940F0100008611DB1002050490A
:101FF000088002E0A5204E4908804FF43020FFF70A
:102000000CFE0446052C10D04648006941F6EF71DD
:1020100008404449086108E0052C06D041480069A1
:1020200041F6DF7108403F490861204630BDF0B5F8
:1020300005460E46174604243B483A4988603B480B
:102040008860E002FFF7E9FD0446042C19D1354809
:10205000006940F010003349086147F0F800304350
:1020600028433349891C0880E002FFF7D6FD044667
:10207000052C06D02B48006941F6EF71084029492C
:1020800008612046F0BD2748C06980087047254890
:10209000006A704700202349096801F0200109B156
:1020A000012000E00020704729B11E4A1269024356
:1020B0001C4B1A6104E01B4A12698243194B1A61D6
:1020C000704701460020012908D1164AD26902F062
:1020D00001020AB1012008E0002006E0114AD2689E
:1020E0000A400AB1012000E0002070470D49C86095
:1020F000704704200B49C96801F0010109B10120B2
:102100000EE00849C96801F0040109B1022007E0A6
:102110000449C96801F0100109B1032000E004205E
:10212000704700000020024023016745AB89EFCDD6
:1021300000F8FF1F10B50446CC48844208D10121A5
:10214000042000F093FB0021042000F08FFB46E008
:10215000C748844208D10121082000F087FB0021F4
:10216000082000F083FB3AE0C248844208D10121F4
:10217000102000F07BFB0021102000F077FB2EE008
:10218000BD48844208D10121202000F06FFB0021CE
:10219000202000F06BFB22E0B848844208D10121E6
:1021A000402000F063FB0021402000F05FFB16E0C0
:1021B000B348844208D10121802000F057FB002160
:1021C000802000F053FB0AE0AE48844207D1012191
:1021D000801500F04BFB0021A01500F047FB10BD5F
:1021E00010B50121084600F041FB0021012000F05C
:1021F0003DFB10BD2DE9F0410246002500260020E0
:1022000000230024002791F803C00CF00F0591F87B
:1022100003C00CF0100CBCF1000F03D091F802C009
:102220004CEA050591F800C0BCF1000F31D01468EC
:1022300000202BE04FF0010C0CFA00F3B1F800C0C5
:102240000CEA03069E4220D183004FF00F0C0CFADB
:1022500003F7BC4305FA03FC4CEA040491F803C0FD
:10226000BCF1280F06D14FF0010C0CFA00FCC2F8AB
:1022700014C00AE091F803C0BCF1480F05D14FF03B
:10228000010C0CFA00FCC2F810C0401C0828D1D385
:102290001460B1F800C0BCF1FF0F34DD54680020B9
:1022A0002EE000F1080C4FF0010808FA0CF3B1F829
:1022B00000C00CEA03069E4221D183004FF00F0CB0
:1022C0000CFA03F7BC4305FA03FC4CEA040491F84A
:1022D00003C0BCF1280F05D100F1080C08FA0CF876
:1022E000C2F8148091F803C0BCF1480F07D100F187
:1022F000080C4FF0010808FA0CF8C2F81080401CD6
:102300000828CED35460BDE8F0814FF6FF710180FC
:10231000022181700421C170704702460020936839
:102320000B400BB1012000E0002070470146886897
:1023300080B2704702460020D3680B400BB10120E9
:1023400000E0002070470146C86880B27047016114
:102350007047416170470AB1016100E04161704717
:10236000C16070474FF480320A43826181618261AB
:1023700082698269704702460020434B18684FF615
:102380008073184040EA021008433F4B18607047C2
:102390003E49C8617047F0B50A4600230024002179
:1023A000002500F00046B6F1004F02D1364EF1692B
:1023B00001E0354E7168C0F3034583B200F4401666
:1023C000B6F5401F08D121F070612F4E766826F0D7
:1023D00070662D4F7E6012E000F48016B6F5801F07
:1023E00006D1032606FA05F4A14341F0706106E028
:1023F000460D360103FA06F6B14341F0706122B191
:10240000460D360103FA06F6314300F00046B6F1F8
:10241000004F02D11C4EF16101E01B4E7160F0BD16
:1024200030B500228B071C0F0F2303FA04F2164B62
:1024300008338C1053F824309343134C08348D1018
:1024400044F8253023468C1053F824308C07240F91
:1024500000FA04F423430C4C08348D1044F8253062
:1024600030BD0A49DC3108607047000000080140B7
:10247000000C014000100140001401400018014010
:10248000001C0140002001400000014000002042EB
:1024900010B50121080700F0F6F900214FF0805037
:1024A00000F0F1F910BD2A49086270472849086117
:1024B000704701460020274A106820F0E0000843DA
:1024C000106070472249A0310860704710B502467D
:1024D0000020204B186820F00300104318601E4BAA
:1024E0001B6843F004031C4C2360012901D130BF59
:1024F00000E020BF184B1B6823F00403164C236038
:1025000010BD1448006840F00400124908600846F5
:10251000006840F0020008600F48006840F00400C6
:102520000D49086000BF00BF30BF70470146002062
:10253000084A52680A400AB1012000E000207047B2
:102540000449096841EA8001024A116070470000AD
:1025500000000E420070004010ED00E0DF4800680F
:1025600040F00100DD49086008464068DC49084049
:10257000DA49486008460068DA490840D7490860E7
:102580000846006820F4802008600846406820F46F
:10259000FE0048604FF41F0088607047CF4909680B
:1025A00021F48031CD4A11601146096821F480215F
:1025B0001160B0F5803F03D0B0F5802F0ED106E05A
:1025C000C649096841F48031C44A116007E0C34933
:1025D000096841F4A021C14A116000E000BF00BFBA
:1025E000704710B501460022002300204A11012A3D
:1025F00002D1BA4C236806E0022A02D1B74C236A02
:1026000001E0B64C636A01F01F02012494401C40B3
:102610000CB1012000E0002010BD38B50020009072
:102620000024002500BF3120FFF7DBFF054600989E
:10263000401C00900098B0F5A06F01D0002DF2D0A2
:102640003120FFF7CEFF08B1012400E0002420462E
:1026500038BD01460020A14A106820F0F80040EA89
:10266000C10010607047A049086070470246002012
:102670009A4B586820F47C1042EA01031843974BA8
:102680005860704798490866704701460020934A91
:10269000506820F003000843506070478F4840683E
:1026A00000F00C007047014600208C4A506820F072
:1026B000F00008435060704701460020874A506888
:1026C00020F4E06008435060704701460020834AD0
:1026D000506820F4605040EAC1005060704729B152
:1026E0007E4A527A02437D4B5A7204E07B4A527A08
:1026F00082437A4B5A7270477B49D83108607047E1
:1027000001460020754A506820F44040084350605C
:1027100070470021714A20321170704A82F82010EF
:10272000012802D004280AD104E001216B4A20329A
:10273000117005E00521694A2032117000E000BFE8
:1027400000BF70476949086070476449096A0143DE
:10275000624A11627047654944390860704730B574
:1027600000210022002400235C4D6D6805F00C015F
:1027700021B1042905D0082923D105E05C4D05606D
:1027800022E05B4D05601FE0544D6D6805F470124A
:10279000524D6D6805F48034022505EB92421CB958
:1027A000544D554305600BE04C4D6D6805F4003504
:1027B0001DB1504D5543056002E04D4D5543056038
:1027C00002E04B4D056000BF00BF444D6D6805F051
:1027D000F0010909484D6B5C0568DD4045603F4DDF
:1027E0006D6805F4E061090A434D6B5C4568DD40A6
:1027F00085603A4D6D6805F46051C90A3E4D6B5CC9
:102800004568DD40C560354D6D6805F44041890B74
:102810003A4D6B5CC568B5FBF3F5056130BD29B178
:102820002E4A526902432D4B5A6104E02B4A5269E9
:1028300082432A4B5A61704729B1284A9269024360
:10284000264B9A6104E0254A92698243234B9A61A0
:10285000704729B1214AD2690243204BDA6104E072
:102860001E4AD26982431D4BDA61704729B11B4A67
:10287000D2680243194BDA6004E0184AD2688243F6
:10288000164BDA60704729B1144A12690243134BA0
:102890001A6104E0114A12698243104B1A617047B1
:1028A00012494039086070470F49C86470470B49A6
:1028B000C87170470948406A40F080700749486213
:1028C000704701460020054A92680A400AB101207B
:1028D00000E00020704701498872704700100240F4
:1028E0000000FFF8FFFFF6FE000042428004424273
:1028F00000127A0000093D006400002074000020EE
:1029000029B1504A128802434E4B1A8004E04D4AC6
:10291000128882434B4B1A8070474A48001D00883A
:1029200040F010004749091D088070474548001DC8
:1029300000884FF6EF7108404249091D0880704732
:10294000002140481C300188001F008841EA0040F7
:10295000704700B50246FFF7E0FF100C3949183107
:102960000880091D0A80FFF7E1FF00BD00B502469F
:10297000FFF7D3FFC2F30340324908310880091D35
:102980000A80FFF7D3FF00BD00B50246FFF7C5FF81
:10299000100C2C4920310880091D0A80FFF7C6FF62
:1029A00000BD00202749103109880907080B254977
:1029B000143109880843704700BF2248001D008871
:1029C00000F020000028F8D070471E48001D008845
:1029D0004FF6F77108401B49091D088000BF1948D0
:1029E000001D008800F008000028F8D0704701465C
:1029F0000020144A121D12880A400AB1012000E08A
:102A0000002070470F49091D098881430D4A121D96
:102A100011807047014600200A4A121D12880A40A0
:102A2000D0B2084A12880A4012B108B1012000E071
:102A3000002070470349091D09888143014A121D7E
:102A4000118070470028004010B50446BE488442FB
:102A500008D101218014FFF709FF0021A014FFF71E
:102A600005FF16E0B948844208D101210014FFF7A0
:102A70000AFF00212014FFF706FF0AE0B448844251
:102A800007D10121C013FFF7FEFE0021E013FFF77D
:102A9000FAFE10BD10B50022028802F441520B88E4
:102AA0004C8823438C882343CC8823430C892343BD
:102AB0004C8923438C892343CC8923431A430280C6
:102AC000838B4FF2FF74234083830B8A038210BDF4
:102AD0002DE9F04F85B005460C464FF0000902275E
:102AE0004FF000084FF0010B0026B246A88B4FF2C2
:102AF00040010840A88302202884B5F81C90A068F3
:102B0000022801D100BF38E0A08810B94FF0010BB6
:102B100001E04FF0020B8D48854200D100E000BF7C
:102B20006846FFF71CFEDDF800A0E088B0F5007FE6
:102B30000AD14FEA1A2000EB80004000A168B0FBE8
:102B4000F1F0401D86B20BE04FEA4B10BAFBF0F0FB
:102B500000EB80004000A168B0FBF1F0401D86B2A0
:102B60000A20B6FBF0F606F00108A6EB0800C0F359
:102B70004F074FF6FF7000EA0828022F01DBFF2FF6
:102B800002DD02274FF00008E08840EA08003843E1
:102B90002884A088A18908436188084321880843C4
:102BA00040F4006040EA0909A5F81C9005B0BDE8B2
:102BB000F08F0021018041808180C18001814181AD
:102BC0008181C181072101827047002101804180FC
:102BD0008180C1800221816000218181704721B103
:102BE000028842F04002028004E002884FF6BF7380
:102BF0001A400280704721B1828B42F48062828346
:102C000004E0828B4FF6FF331A408283704730B561
:102C1000002400230C110125A540ABB21AB1858810
:102C20001D43858002E085889D43858030BD1AB1B3
:102C300083880B43838002E083888B4383807047C3
:102C4000818170470146888970474FF6FF62914243
:102C500004D0028842F48072028004E002884FF6B9
:102C6000FF631A400280704721B1828842F004025B
:102C7000828004E082884FF6FB731A40828070479E
:102C800002884FF2FF731A40028002880A430280D2
:102C90007047018841F480510180704721B102885A
:102CA00042F40052028004E002884DF6FF731A409D
:102CB0000280704702460020012901D0108B00E0FD
:102CC000908A70470146088A7047B1F5804F04D159
:102CD000028842F48042028004E002884BF6FF73CF
:102CE0001A40028070470246002013890B400BB146
:102CF000012000E000207047CA4302817047F0B510
:102D00000246002000240023002501F00F070126C1
:102D1000BE40B4B20B1101269E40B3B2968806EABB
:102D200003051689264016B10DB1012000E00020F0
:102D3000F0BD10B5002201F00F040123A3409AB2A8
:102D4000D343038110BD0000003001400038004033
:102D5000003C004010B50446FE48844208D10121E1
:102D6000C014FFF783FD0021E014FFF77FFDC4E0EE
:102D7000B4F1804F08D101210846FFF784FD0021FE
:102D80000120FFF780FDB8E0F348844208D101211B
:102D90000220FFF778FD00210220FFF774FDACE070
:102DA000EE48844208D101210420FFF76CFD002188
:102DB0000420FFF768FDA0E0E948844208D1012122
:102DC0000820FFF760FD00210820FFF75CFD94E07C
:102DD000E448844208D101211020FFF754FD00216E
:102DE0001020FFF750FD88E0DF48844208D1012120
:102DF0002020FFF748FD00212020FFF744FD7CE064
:102E0000DA48844208D101214014FFF72FFD002148
:102E10006014FFF72BFD70E0D548844209D10121F1
:102E2000C804FFF723FD00214FF40020FFF71EFD2B
:102E300063E0D048844209D101210805FFF716FD5F
:102E400000214FF48010FFF711FD56E0CA4884427C
:102E500009D101214805FFF709FD00214FF40010B9
:102E6000FFF704FD49E0C548844208D10121402014
:102E7000FFF709FD00214020FFF705FD3DE0C048B8
:102E8000844208D101218020FFF7FDFC0021802031
:102E9000FFF7F9FC31E0BB48844208D101218015DD
:102EA000FFF7F1FC0021A015FFF7EDFC25E0B64887
:102EB000844209D101210804FFF7D8FC00214FF416
:102EC0008030FFF7D3FC18E0B048844209D10121DB
:102ED0004804FFF7CBFC00214FF40030FFF7C6FC9D
:102EE0000BE0AB48844208D101218804FFF7BEFC07
:102EF00000214FF48020FFF7B9FC10BD00220288AA
:102F0000944B98420ED0994B98420BD0B0F1804F21
:102F100008D0914B984205D0904B984202D0904BEC
:102F2000984204D14FF68F731A404B881A438D4B49
:102F3000984207D08C4B984204D04FF6FF431A407A
:102F4000CB881A4302808B8883850B880385814B4D
:102F500098420BD0854B984208D08B4B984205D0B5
:102F60008A4B984202D08A4B984201D10B7A038651
:102F700001238382704770B5002400220023058C52
:102F80004FF6FE7635400584028C8388048B4FF61D
:102F90008F752C40B51E2C400D882C43751E2A4081
:102FA0000D892A434D882A436A4DA8420BD06F4DA4
:102FB000A84208D0744DA84205D0744DA84202D052
:102FC000734DA84213D14FF6F7752A404D892A4315
:102FD0004FF6FB752A408D882A434FF6FF652B403C
:102FE0004FF6FF552B408D892B43CD892B43838092
:102FF0000483CD888586028470BD70B500240022CC
:103000000023058C4FF6EF7635400584028C8388CB
:10301000048B48F6FF752C404FF6FF452C400D8879
:103020004FF6FF7606EA05252C434FF6DF752A405A
:103030000D8906EA05152A434D8806EA05152A4337
:10304000444DA84202D0494DA8421DD14FF67F758C
:103050002A404D894FF6FF7606EA05152A434FF6BA
:10306000BF752A408D8806EA05152A434FF6FF35BD
:103070002B404FF2FF752B408D8906EA85052B43C7
:10308000CD8906EA85052B4383800483CD88058797
:10309000028470BD70B5002400220023058C4FF619
:1030A000FF6635400584028C8388848B4FF68F75CC
:1030B0002C404FF6FC752C400D882C434FF6FF55E5
:1030C0002A400D894FF6FF7606EA05252A434D88EA
:1030D00006EA05252A431F4DA84202D0234DA842E7
:1030E0001DD14FF2FF752A404D894FF6FF7606EA53
:1030F00005252A434FF6FF352A408D8806EA052527
:103100002A434EF6FF752B404DF6FF752B408D89F7
:1031100006EA05152B43CD8906EA05152B43838066
:103120008483CD888587028470BD70B5002200231A
:103130000024058C4EF6FF7635400584038C848888
:10314000828B48F6FF752A404FF6FF452A400D88CE
:1031500020E00000002C0140000400400008004076
:10316000000C0040001000400014004000340140FA
:10317000004C014000500140005401400018004044
:10318000001C00400020004000400140004401407D
:10319000004801404FF6FF7606EA05252A434DF622
:1031A000FF752B400D8906EA05352B434D8806EA4D
:1031B00005352B43FA4DA84202D0FA4DA84208D15A
:1031C0004BF6FF752C408D894FF6FF7606EA851584
:1031D0002C4384808283CD88A0F84050038470BD46
:1031E000828B4FF2FF331A408283828B4FF6FF733C
:1031F00003EA01231A4382837047F0B50C46154653
:10320000002200210026078C4EF6FF7C07EA0C07FF
:103210000784828B018C4FF6FF7707EA043640F66D
:10322000FF473A404FF6FF7707EA05273A434FF644
:10323000FF7707EA03373A43D94FB8420ED0D94F48
:10324000B8420BD0B0F1804F08D0D74FB84205D06C
:10325000D64FB84202D0D64FB84206D14DF6FF77CE
:10326000394046F48057394305E047F6FF57394067
:1032700044F48057394382830184F0BD828B4FF63A
:10328000F3731A408283828B0A4382837047F0B5BE
:103290000C461546002200210026078C4FF6FF6CD5
:1032A00007EA0C070784828B018C4FF6FF7707EA49
:1032B00004264FF60C773A404FF6FF7707EA0317DC
:1032C0002F433A43B64FB8420ED0B64FB8420BD058
:1032D000B0F1804F08D0B44FB84205D0B34FB842D8
:1032E00002D0B34FB84206D14FF6FF57394046F4EB
:1032F0008077394305E04FF2FF57394044F4807737
:10330000394382830184F0BD028B4FF2FF331A40B0
:103310000283028B4FF6FF7303EA01231A430283F1
:103320007047F0B50C461546002200210026078C98
:103330004FF6EF7C07EA0C070784028B018C4FF6EF
:10334000FF7707EA041640F6FF473A404FF6FF774B
:1033500007EA03373A434FF6FF7707EA05273A4370
:103360008F4FB8420ED08F4FB8420BD0B0F1804F84
:1033700008D08D4FB84205D08C4FB84202D08C4F48
:10338000B84206D14FF6DF77394046F0100739438F
:1033900005E04FF65F77394044F010073943028368
:1033A0000184F0BD028B4FF6F3731A400283028B47
:1033B0000A4302837047F0B50C46154600220021EF
:1033C000068C4FF6FE773E400684028B018C4FF64A
:1033D0000C7632407E1C06EA03162E433243704EB2
:1033E000B0420ED06F4EB0420BD0B0F1804F08D03B
:1033F0006D4EB04205D06D4EB04202D06C4EB04220
:1034000006D14FF6FD76314044F00106314305E028
:103410004FF6F576314044F00106314302830184D2
:10342000F0BD70B505460C465D4885420ED05D483E
:1034300085420BD0B5F1804F08D05B48854205D05E
:103440005A48854202D05A48854200D100E000BF68
:10345000208850B92389A28861882846FFF7ABFFEE
:10346000E1882846FFF79EFF25E0208804280AD13E
:103470002389A28861882846FFF753FFE188284600
:10348000FFF742FF17E0208808280AD12389A28885
:1034900061882846FFF7FBFEE1882846FFF7EEFE2D
:1034A00009E02389A28861882846FFF7A6FEE18803
:1034B0002846FFF795FE70BD2DE9F04105460C4604
:1034C00000260127608808B9022600E00026A088AF
:1034D000012801D1022700E001272088A0B9238913
:1034E000A28861882846FFF766FFE1882846FFF733
:1034F00059FF23893A4631462846FFF712FFE188F3
:103500002846FFF701FF13E02389A2886188284637
:10351000FFF707FFE1882846FFF7F6FE23893A46C2
:1035200031462846FFF747FFE1882846FFF73AFF74
:10353000BDE8F0810A884B881A438B881A43CB88F0
:103540001A430B891A434B891A438B891A43A0F8F3
:10355000442070474FF6FF71818000210180C180B7
:103560004180017270470021018041808180C180CB
:10357000018141818181C1817047002101804180A9
:10358000012181800021C1800181704700210180DB
:1035900041808180C180018141818181704700002B
:1035A000002C0140003401400004004000080040AD
:1035B000000C004021B1028842F00102028004E0C8
:1035C00002884FF6FE731A400280704731B1B0F89E
:1035D000442042F40042A0F8442005E0B0F8442022
:1035E000C2F30E02A0F8442070471AB183890B433E
:1035F000838102E083898B43838170478182704796
:1036000041EA0203A0F8483070471AB183890B439E
:10361000838102E083898B438381704701894FF660
:10362000F8721140018170470A46002101894FF666
:103630008F73194011430181704730B504460D4620
:1036400029462046FFF7F0FF208940F0070020813F
:1036500030BD2DE9F04104460D4616461F46602D4B
:1036600006D13B46012231462046FFF75AFE05E0CF
:103670003B46012231462046FFF79DFE2946204663
:10368000FFF7D2FF208940F007002081BDE8F081DC
:1036900030B50C4600210189C9B24FF6FF7505EA25
:1036A0000325154325432943018130BD2DE9F04110
:1036B00005460E4617469846002443463A4631468C
:1036C0002846FFF7E5FF2C894FF6F870044044F0D8
:1036D00007044FF68F70044044F070042C81BDE85D
:1036E000F081F0B504460D4616461F463B4632466D
:1036F00029462046FFF7CCFF208940F480402081F6
:10370000F0BD0185828270470A46002101884FF68C
:103710008F731940114301807047F0B50C46154670
:103720001E460021002200230189028B038C4FF6E4
:10373000F877394021434FF6FC473A4040F20117F1
:103740003A434FF6DD773B404FF6FF7707EA06171F
:103750002F433B43018102830384F0BD0A460021CD
:10376000018B4FF68F7319401143018370470A464E
:103770000021018B48F6FF7319404FF6FF7303EAEF
:1037800002231943018370470A460021818B4FF6BB
:103790008F7319401143818370470A460021818B42
:1037A00048F6FF7319404FF6FF7303EA02231943EB
:1037B0008183704721B1028842F08002028004E0D8
:1037C00002884FF67F731A400280704721B18288C9
:1037D00042F00402828004E082884FF6FB731A40B4
:1037E0008280704721B1828842F00802828004E022
:1037F00082884FF6F7731A408280704721B1828821
:1038000042F00102828004E082884FF6FE731A4083
:10381000828070470A460021018B4FF6F7731940EA
:103820001143018370470A460021018B4FF2FF7359
:1038300019404FF6FF7303EA0223194301837047CF
:103840000A460021818B4FF6F7731940114381839B
:1038500070470A460021818B4FF2FF7319404FF6E3
:10386000FF7303EA02231943818370470A4600214C
:10387000018B4FF6FB7319401143018370470A46D1
:103880000021018B4FF6FF3319404FF6FF7303EA17
:1038900002231943018370470A460021818B4FF6AA
:1038A000FB7319401143818370470A460021818BC5
:1038B0004FF6FF3319404FF6FF7303EA0223194313
:1038C000818370470A460021018B4FF67F731940B0
:1038D0001143018370470A460021018BC1F30E0199
:1038E0004FF6FF7303EA02231943018370470A4628
:1038F0000021818B4FF67F731940114381837047FC
:103900000A460021818BC1F30E014FF6FF7303EAD3
:1039100002231943818370470A460021018C4FF628
:10392000FD7319401143018470470A460021018C40
:103930004FF6F77319401143018470470A4600217E
:10394000018C4FF6DF7319404FF6FF7303EA021341
:103950001943018470470A460021018C4FF67F739A
:1039600019404FF6FF7303EA0213194301847047AD
:103970000A460021018C4FF6FF5319404FF6FF73A2
:1039800003EA02231943018470470A460021018C8F
:103990004FF2FF7319404FF6FF7303EA02231943F6
:1039A000018470470A460021018C4DF6FF731940CF
:1039B0004FF6FF7303EA023319430184704730B5B1
:1039C000002301248C40A3B2048C9C430484048C07
:1039D00002FA01F5ADB22C43048430BD30B50023AA
:1039E00004248C40A3B2048C9C430484048C02FA0B
:1039F00001F5ADB22C43048430BD70B50346002000
:103A000000241846183001258D40ACB21D8CA5430A
:103A10001D8409B1082909D100EB6100056825F072
:103A2000700505600568154305600EE00D1FC5F3C0
:103A30004E052844056825F4E045056005684FF605
:103A4000FF7606EA02263543056070BD21B1028883
:103A500042F00202028004E002884FF6FD731A4031
:103A60000280704721B1028842F00402028004E023
:103A700002884FF6FB731A400280704721B182889A
:103A800042F08002828004E082884FF67F731A4001
:103A90008280704702884FF6F7731A4002800288CE
:103AA0000A430280704782884FF68F731A408280E3
:103AB00082880A438280704702894FF6F8731A4061
:103AC000028102890A430281704702894FF67F739F
:103AD0001A40028102890A4302817047818470473B
:103AE000818570478186704701877047818770475D
:103AF000A0F84010704702884FF6FF431A4002803A
:103B000002880A43028070470146888E704701464A
:103B1000088F70470146888F70470146B1F8400012
:103B200070470146888C70470146088D70470246F1
:103B30000020138A0B400BB1012000E000207047E9
:103B4000CA430282704730B5024600200023002499
:103B5000158A05EA0103958905EA010413B10CB140
:103B6000012000E0002030BDCA43028270470000FF
:103B700010B50446FB48844209D101218803FEF7B1
:103B800075FE00214FF48040FEF770FE32E0F648EB
:103B9000844209D101214804FEF775FE00214FF44B
:103BA0000030FEF770FE25E0F048844209D1012183
:103BB0008804FEF768FE00214FF48020FEF763FEC4
:103BC00018E0EB48844209D10121C804FEF75BFEEE
:103BD00000214FF40020FEF756FE0BE0E54884423A
:103BE00008D101210805FEF74EFE00214FF4801098
:103BF000FEF749FE10BD2DE9F04786B005460E469A
:103C00000024A24600BFA1460027B08900B100BF32
:103C10002F462C8A4CF6FF700440F08804432C8217
:103C2000AC894EF6F3100440B0883189084371899D
:103C300008430443AC81AC8A4FF6FF400440B0898E
:103C40000443AC8201A8FEF78AFDC648874202D130
:103C5000DDF810A001E0DDF80CA0A88900F4004018
:103C600040B10AEBCA0000EB0A1031684900B0FB12
:103C7000F1F807E00AEBCA0000EB0A10316889008E
:103C8000B0FBF1F86420B8FBF0F0040120096421D6
:103C900001FB1089A88900F4004040B1322000EBFC
:103CA000C900B0FBF1F000F00700044308E0322047
:103CB00000EB09106421B0FBF1F000F00F000443A9
:103CC0002C8106B0BDE8F0874FF416510160002149
:103CD0008180C18001810C21418100218181704757
:103CE00010B502460020108A4FF2FF0318400B88DF
:103CF0004C8823438C882343CC8823431843108269
:103D000010BD0021018041808180C180704721B1B8
:103D1000828942F40052828104E082894DF6FF7369
:103D20001A4082817047F0B5034600240026002522
:103D3000002040F66A17B94200D100BF1846C1F30F
:103D4000421401F01F06012707FA06F5012C01D1E4
:103D50000C3004E0022C01D1103000E014301AB114
:103D600007682F43076002E00768AF430760F0BDB4
:103D70001AB1838A0B43838202E0838A8B43838256
:103D80007047028A4FF6F0731A400282028A0A4391
:103D90000282704782894FF2FF731A4082818289C2
:103DA0000A438281704721B1828942F002028281F6
:103DB00004E082894FF6FD731A4082817047028ABF
:103DC0004FF6DF731A400282028A0A43028270476A
:103DD00021B1028A42F48042028204E0028A4BF658
:103DE000FF731A4002827047C1F308028280704755
:103DF00001468888C0F308007047818941F00101BD
:103E000081817047028BD2B20283028B42EA012287
:103E100002837047028B02F47F420283028B0A43C3
:103E20000283704721B1828A42F02002828204E03C
:103E3000828A4FF6DF731A408282704721B1828AEC
:103E400042F01002828204E0828A4FF6EF731A4039
:103E50008282704721B1828A42F00802828204E0A5
:103E6000828A4FF6F7731A408282704721B18289A5
:103E700042F40042828103E08289C2F30E02828111
:103E8000704721B1828A42F40062828204E0828A11
:103E90004FF2FF731A4082827047828A4FF6FB739B
:103EA0001A408282828A0A438282704721B1828AC2
:103EB00042F00202828204E0828A4FF6FD731A40C9
:103EC0008282704702460020B1F5007F00D100BF1A
:103ED00013880B400BB1012000E00020704701F473
:103EE0000072B2F5007F00D100BFCA430280704764
:103EF00070B50246002400230025002040F66A1613
:103F0000B14200D100BFC1F3421501F01F030126E9
:103F100006FA03F3012D02D19689334006E0022D03
:103F200002D1168A334001E0968A33400C120126F2
:103F300006FA04F41688344013B10CB1012000E0F5
:103F4000002070BD10B50022002340F66A14A14283
:103F500000D100BF0A1201249440A3B2DC430480C4
:103F600010BD0000003801400044004000480040FF
:103F7000004C00400050004010B50121C802FEF77F
:103F800082FC00214FF40060FEF77DFC10BD002193
:103F9000194A126822F4C0710143174A1160704730
:103FA00008B5002100911449096821F07F010091B2
:103FB00000F07F01009A114300910F4A00991160AF
:103FC00008BD01200D490860704700F07F010A4AD2
:103FD000121F1160704740F08001074A121F1160E4
:103FE00070470548001D0068C0B2704700200249B4
:103FF000091D086070470000042C0040A4800542A1
:1040000070477047704710B500F008F8006810BDA1
:1040100010B5044600F002F8046010BD0048704777
:10402000B000002000487047B00000207546FFF740
:10403000F9FFAE4605006946534620F00700854665
:1040400018B020B5FCF7AEF8BDE820404FF00006F0
:104050004FF000074FF000084FF0000B21F0070170
:10406000AC46ACE8C009ACE8C009ACE8C009ACE8B3
:10407000C0098D46704710B50446AFF30080204656
:10408000BDE81040FCF779B801491820ABBEFEE747
:104090002600020070472DE9F0414F1E00EBC701DA
:1040A0000446D1E9000115461E4637F006020DD040
:1040B0002A46334600F0E0FC7F1E04EBC703D3E939
:1040C000002300F02FFA37F00602F1D1022F25D09D
:1040D000042F13D0062F18BFBDE8F0812A463346BF
:1040E00000F0CAFCD4E90A2300F01CFA2A46334641
:1040F00000F0C2FCD4E9082300F014FA2A46334643
:1041000000F0BAFCD4E9062300F00CFA2A46334644
:1041100000F0B2FCD4E9042300F004FA2A46334646
:1041200000F0AAFCD4E9022300F0FCF92A46334649
:1041300000F0A2FCD4E90023BDE8F04100F0F2B9A0
:10414000002213461046014900F0A8BA0000F03FD3
:10415000012201F00CBA002213461046114600F06D
:104160009DBA00002DE9F04DC84A002490B091425C
:1041700005DA21F00043934201D805D120B110B0F7
:10418000BDE8F04DFFF7E4BFB1F5801F1BDA53EA3D
:10419000000209D0002911DA0120FFF739FF10B021
:1041A000BDE8F04DFFF7D7BF0220FFF731FFFFF763
:1041B000C7FF10B081F00041BDE8F08D6FF035040D
:1041C000362201F0D4F904EB2152C1F31308B049AF
:1041D000A2F2FF33414401F4801282F07F6103EBCD
:1041E000225281F04051009241EA08010022A94B7D
:1041F00000F04CFD044608F10200A74EC0F3130086
:104200000D467E44032867D2D6E90023204600F0FD
:104210009DFB1ED10098002802BFD6E9000110B016
:10422000BDE8F08D00F0FDFB07460C469B4A9C4B19
:1042300000F022FC06460D469A4A9B4B3846214622
:1042400000F01AFC10B032462B46BDE8F04D00F0ED
:1042500069B94FF05532954B2046294600F00CFCC9
:104260000022934B00F006FD06460F4622462B46E1
:104270001046194600F000FC32463B4600F0FCFBBD
:10428000064600980F46F0B100F0CBFB80468A4608
:10429000824A834B00F0F0FB32463B4600F0EAFCDA
:1042A00022462B4600F0F2FC05460C467D4A7E4B2A
:1042B0004046514600F0E0FB10B02A462346BDE8D8
:1042C000F04D00F0E3BC0B4610B0324620462946C4
:1042D000BDE8F04D00F0DABC00224FF080432046EC
:1042E00000F020F902460B462046294600F0D6F998
:1042F00006460F46009800F094FBCDE904013246D3
:104300003B461046394600F0B7FB0C9069480C9AC2
:104310004044019009910B46104600F0ADFB8246E7
:10432000024665488B46C8F151080B4608F5D72868
:1043300003217844FFF7AFFE52465B4600F09CFB3A
:104340000A905E480D9152465B4604217844FFF77F
:10435000A2FE099B0C9A00F08FFB844601980D9BEE
:1043600040EA080860460A9A00F0DCF883460891A3
:10437000B8F1000F4EDD4FF0FF322046294601F024
:10438000F6F822462B4600F077FB804600988A46D6
:1043900060B3DDE90401414A414B00F06DFB099136
:1043A00000905A4640465146089B00F0BBF8324602
:1043B0003B4600F061FB099B009A00F0B3F84246CF
:1043C000534600F057FC22462B4600F05FFC0446A3
:1043D0000D46DDE90401334A334B00F04DFB10B0CC
:1043E00022462B46BDE8F04D00F050BC5A464046F0
:1043F000089B00F097F832463B4600F03DFB4246F2
:10440000534600F037FC10B022462B46BDE8F04D75
:1044100000F030BC009840B3DDE904011F4A204B96
:1044200000F02AFB80468A465A4620462946089BC9
:1044300000F02CFC32463B4600F01EFB4246534641
:1044400000F024FC22462B4600F020FC04460D46DA
:10445000DDE90401134A144B00F00EFB10B02246B4
:104460002B46BDE8F04D00F011BC0B465A462046E5
:10447000294600F00BFC32463B4600F0FDFA10B036
:1044800022462B46BDE8F04D00F0F4BB0000F07F63
:10449000645F09000000F03F32140000763C79357B
:1044A000EF39EA3D0000E0FE422EE63F5555D53F8C
:1044B0000000E03F86EBF9FFCA120000C8120000BE
:1044C00021F00042A2F16052B2F5801F01F00043DA
:1044D00028BFD2F17F6C0BD95FEA001C43EAC2020D
:1044E00042EB507018BF704728BF20F001007047A2
:1044F000B2F5801FBCBF184670474FEA410C1CF54F
:10450000001F02D2084600F04ABF70B500F05EFB03
:1045100000000089FFF7F6BF4FF00040A0F58000D3
:104520007047000010B591EA030F48BF83F00043C5
:1045300000F1B483841A71EB030C05D2121943EB1A
:104540000C03001B61EB0C01DFF824E14FEA11546E
:10455000A4EB135C1EEA430F18BF9EEA445F73D0BE
:1045600023EA0E03DCF1200E21EA045143F4801308
:1045700032D322FA0CFE10EB0E0023FA0CFE41EBB4
:104580000E01CCF1200E03FA0EFE10EB0E0051F1DD
:104590000001B1F5801FCCF1200E32D201EB0451A5
:1045A00012FA0EF2BDE8104058BF7047401C38BFE9
:1045B0005FEA420218BF7047002814BF20F00100D4
:1045C00041F100014FEA410313F5001F38BF704766
:1045D000A1F1C04100F048BB012A43EB0302ACF15A
:1045E000200CDCF11F0E32BF4FF0000E23FA0CF34B
:1045F00010EB030041EB0451B4EB115FD0D0A1EB01
:10460000045101F5801149085FEA300001EB0451C3
:104610000ED350F1000038BF12FA0EFE08D1BDE8EB
:104620001040C9E7401C38BF5FEA4202CAD1C3E765
:10463000BDE810404FEA410313F5001F38BF704733
:10464000A1F1C04100F010BB9EEA445F08D011EA1E
:104650005E0FBDE8104004BF01F00041002070472C
:10466000BDE8104070B500F0B1FA00BF64FBBE3E7B
:104670000000E0FF02494FF0000000F046BF00BF1D
:104680000000F87F491058BFC1F140415B1058BF8E
:10469000C3F140438B42EFF3008070472DE9C041E6
:1046A00030B4DFF8A0C23CEA111418BF3CEA13147E
:1046B00000F0EC8081EA03051CEA111444EAD57489
:1046C00018BF1CEA131500F0C780A4EB05044FF0D7
:1046D000004545EAC12145EAC32341EA505143EA76
:1046E000525304F17F74994204F500344FEAC0201C
:1046F0004FEAC22208BF904200F09C804FEA136547
:104700000FF24016765D4FEA134506FB05F7C7F139
:10471000807706FB07F74FEAD737A7FB0368764297
:10472000C8F58038A7FB06CE38BFA8F1010807FB03
:1047300008E64FF0000EA6FB028CE6FB03CEDCF190
:10474000000CCEF1004E38BFAEF1010EA6FB0C58A6
:104750004FF000074FF00005E6FB0E87A1FB08C6EF
:10476000A0FB07CE16EB0E0645F10005E1FB076541
:1047700015F1E04E7EBFA4F580345FEA46066D4138
:1047800016F1800745F100054FEA17274FEA066644
:1047900047EA0567A6F1DE46B6F1805F4FEA1525C8
:1047A0001FD9384624F0010C05EBC471BCF1FE6F33
:1047B00001EB0C1102D8F0BCBDE8008124425CBFC3
:1047C00001F5801E9EEAC47F02D4F0BCBDE80081E2
:1047D000244238D4F0BCA1F1C041BDE8004100F052
:1047E00043BA4FEAD22242EA43524FEAD323A7FB0D
:1047F00002864FEAD02040EA415007FB03661EEADA
:104800000E0F4FEAD12105FB026658BFA6EB0056FA
:10481000B6EB00564FEA520E4EEAC37E18EB0E0E70
:1048200056EB530EBDD518EB02085E417F1C55F1C7
:104830000005B6E74FF480154FF000074FF0000673
:104840004FF00008ADE7F0BC4FF0000001F1C041AF
:1048500001F00041BDE8008111EA0C1F0CEA1315BC
:1048600000D00CE013EA0C1F00F025804FF0000090
:10487000F0BC81EA030101F00041BDE80081F0BC19
:10488000BDE8004181EA030100F0EEB9F0BCBDE8EB
:10489000004170B500F09AF9097EFC3E00F007B8BF
:1048A00081EA03014FF0000001F00041704781EA06
:1048B000030100F0D9B9F0BCBDE800414FF00000A1
:1048C00021497047FFFDFBF9F7F5F4F2F0EEEDEB4F
:1048D000E9E8E6E4E3E1E0DEDDDBDAD8D7D5D4D3FE
:1048E000D1D0CFCDCCCBCAC8C7C6C5C4C2C1C0BF4A
:1048F000BEBDBCBBBAB9B8B7B6B5B4B3B2B1B0AF50
:10490000AEADACABAAA9A8A8A7A6A5A4A3A3A2A133
:10491000A09F9F9E9D9C9C9B9A99999897979695EE
:1049200095949393929191908F8F8E8E8D8C8C8B8A
:104930008B8A898988888787868585848483838212
:10494000828181800000FF070000F87F51EA030C9C
:1049500017D41CF5801F58BFBCF5801F00F10680DE
:10496000994218BF704708BF9042704707D711F5AA
:10497000801F58BF13F5801F19D499427047894290
:1049800070471CF5801F08D5BCF5801FF7D58B42FA
:1049900018BF704708BF824270474FF4001C1CEBE1
:1049A000410F38BF1CEB430F01D28B42704770B5EB
:1049B00000F00CF9922449004FF000514FF0805361
:1049C000FFF760BE4FEA41034FEA5353A3F58063FC
:1049D000D3F11E03C8BFD3F1210C0CDD4FF0004210
:1049E00042EAC12242EA505232FA03FC8CEAE17CEC
:1049F000ACEBE1707047102BC4BF0020704703F58B
:104A0000787CBCF1FF3F04D06FF0004282EA2100C5
:104A1000704770B500F0DAF84992248000207047A2
:104A2000F2E710F0004248BF4042B0FA80F310FABB
:104A300003F10AD0C3F11D0303F580634FEA41502F
:104A400002EB035202EBD12170474FF00000704798
:104A5000B0FA80F310FA03F10AD0C3F11D0303F595
:104A600080634FEA41504FEA035202EBD121704775
:104A70004FF0000070470000DFF848C170B51CEA35
:104A8000111E1EBF1CEA13159EEA0C0F95EA0C0FAF
:104A900000F06F8081EA030423EA4C134EEAD47ECF
:104AA00021EA4C1141F4801143F48013AE44A1FB80
:104AB000024CA0FB0365AEF17F7E361955EB0C0569
:104AC000A1FB034C4CF10003A0FB021C16EB0C06EF
:104AD000654153F10003094218BF46F0010613F483
:104AE000007F0BD14FEA03314FEA0530340341EA2E
:104AF000155140EA16506FF003020AE04FEAC32155
:104B00004FEAC520F40241EA555140EA56506FF091
:104B1000020202EB2E4201EB025585EACE710AD069
:104B20005FEA440C18BF24F0004450F1000041F14A
:104B3000000120EAD47040F2FE7C624500D270BDD4
:104B4000A84214BF4FF080444FF04044002E08BFED
:104B50000024BEF1806FA8BFA1F1C041BDE8704044
:104B600080F282804FF0000001F1C04101F000416D
:104B700070479EEA0C0F0CEA131518BF95EA0C0F4C
:104B800006D04FF0000081EA030E0EF0004170BD28
:104B900000F01CF88900013E00F007B800F009B8E9
:104BA0004FEA430C5FEA5C5C08D081EA030100F045
:104BB0005BB84FEA410C5FEA5C5CF6D14FF0000055
:104BC000014970470000FF070000F87F0EF1020E58
:104BD0002EF0030E5EF8046B364205D4012A43EB37
:104BE000030515F5001F12D8012841EB010C1CF537
:104BF000001F0CD80ED14FEAD17C15F5001F0CEB2D
:104C00004C0C0CF1020C08BF4CEBD37C04E04FF0D1
:104C1000080C01E04FEAD37C0CEB4C0526FA05F6B4
:104C200006F00706B6F1040C06D20EEB860CBDE8C2
:104C300070404CF0010C6047DFE80CF0090B0202F9
:104C40004FF000414FF00000A1F5002170BD194662
:104C50001046012851EB010418BFD4F5001484BF9D
:104C6000002001F0004170BD0808A0F500114FEAD6
:104C70003101704791EA030F10B581F000413FF513
:104C800059AC83F0004300F009B8000010B591EA78
:104C9000030F48BF83F000433FF54CAC841A71EB1F
:104CA000030C07D212198CF0004C43EB0C03001BD1
:104CB00061EB0C01DFF8A4E14FEA1154A4EB135CA3
:104CC0001EEA430F18BF9EEA445F00F0B08023EA5B
:104CD0006E03524221EA0451C3EB6E0338BF5B1EE0
:104CE000DCF1200E25D322FA0CFE10EB0E0043FA65
:104CF0000CFE41EB0E01CCF1200E03FA0EFE10EB80
:104D00000E0051F10001CCF1200E29D412FA0EF25E
:104D100001EB0451BDE8104058BF7047401C1CBF58
:104D2000B2F1004F704700280CBF491C20F0010071
:104D3000704712EB020E43EB030218BF4FF0010E57
:104D40004EEA4202ACF1200CDCF11E0E54D943FABB
:104D50000CFE10EB0E0051F1FF31CCF11E0ED5D53B
:104D60000EF1010E12FA0EFE404141EB010101EB82
:104D7000445C5FEA5C5C10D910EBDE7001EB04511F
:104D800038BFBEF1004FBDE8104018BF7047002883
:104D90000CBF491C20F00100704730D24FEAD42CE0
:104DA00011F5001124F400641BD0B1FA81F20B3A22
:104DB000A41AA41ED2F12003914030FA03F3194340
:104DC000904001EBCC71002C01EB0451BDE8104088
:104DD000A8BF704701F1C0414FF0000001F0004151
:104DE0007047B0FA80F310FA03F100D110BDE41A55
:104DF000173C4805C90AE4E701EB045110BD49100E
:104E000001EB0451BDE810404FEA300002E04FF0E2
:104E1000000170474A0008BF0042F8D0B2F5001FF9
:104E200028BF704701F000414FF0000070479EEA34
:104E3000445F07D011EA5E0FBDE8104004BF0021B7
:104E400000207047BDE8104070B5FFF7BFFE00BFFF
:104E500040DFF63E83F00041104670470000E0FF5F
:104E600043004FEAD30C4FEA3C0C43401FBF4007BE
:104E70000CF1605113F0FE4F70471CF0006F03D12E
:104E800000200CF0004170470CF0004343EA5070E2
:104E900010B540EACC0000F03CFA00BF00000092E0
:104EA0004FEA0001FFF7E0BE4FF000414FF0000075
:104EB000A1F500217047000090EA010F48BF81F082
:104EC000004100F1B482421A3CBF801A89184FEAAF
:104ED000D0524FF07F4C1CEA410FA2EBD15318BFC8
:104EE0009CEA026F00F03B804FF0004C4CEA00203F
:104EF0004CEA012121FA03FC10EB0C0C1ED202F14A
:104F0000FF325FEA1C2040EBC25038BF70471CF0F4
:104F10007F0F4FEA400C18BFBCF17F4F38BF70477E
:104F2000C3F12003994008BF20F00100BCF17F4F7E
:104F300038BF7047A0F1C04000F031BA4FEA3C00E2
:104F4000000A40EBC25028BF1CF0FF0F4FEA400C94
:104F5000E6D018BFBCF17F4F38BF7047EAE79CEA44
:104F6000026F05D010EA5C0F08BF00F000407047E8
:104F700010B500F0CEF900BF64FBBE3E401058BF34
:104F8000C0F14040491058BFC1F140418142EFF3A8
:104F9000008070474FF47F0C1CEAD0121EBF1CEA41
:104FA000D11392EA0C0F93EA0C0F00F0858090EA7F
:104FB000010F48BF42F4807240F4000C41F400003D
:104FC0002CF07F4120F07F4000B58142A2EB03022C
:104FD0000FF2081CACEB504EC0F100009EF800E050
:104FE0004FEA4E0E00FB0EFC38BF49004FEA2C1C66
:104FF00002F5FA020CFB0EF34FEACE1E4FEA112C1B
:105000004FEAC1210EEB635E42EB22420EFB0CFC29
:105010004FEA1C5300FB03114FEA112C4FEA0131F8
:105020000EFB0CFC4FEADC4C00FB0C11C14228BF0C
:1050300009184CEB03335DF804EB10EB410143EB33
:10504000C250B2F57C0F38BF704729D512F0F00F6F
:105050001CBF00F1C04000F0004070470081828317
:105060008485868788898B8C8D8E8F919293959677
:1050700097999A9C9D9FA0A2A3A5A7A8AAACAEB001
:10508000B2B3B5B7B9BCBEC0C2C5C7C9CCCED1D406
:10509000D7D9DCDFE2E6E9ECF0F3F7FAFE00000036
:1050A0004FEA400C0CF1807CBCF17E4F28BF70476A
:1050B000B0F1C04000F073B990EA010F0CEAD113CF
:1050C00048BF42F48072624538BF634507D213F48B
:1050D0007F0F16D080EA010000F00040704710B545
:1050E00000F017F9097EFC3E00F005B880EA0100E7
:1050F00000F00040704780EA010000F0004000F03E
:105100004EB912F47F0F04BF0248704780EA0100D5
:1051100000F045B90000C07F41000B0ED3F19E02A4
:1051200008D950F400034FEA032323FA02F048BFE2
:105130004042704710B500F0ECF800BF499224805F
:10514000002070476FF0004282EA200070470000A4
:1051500010F0004148BF4042B0FA80F310FA03F269
:10516000C3F19D030BD051EAC35101EB122053064A
:1051700038BF704700F1010008BF20F00100704700
:10518000B0FA80F310FA03F2C3F19D030AD0D905F7
:1051900001EB1220530638BF704700F1010008BF31
:1051A00020F001007047000050EA010C00F113806C
:1051B0001CF5000F58BFBCF5000F01D488427047A2
:1051C00007D710F5000F58BF11F5000F15D488420E
:1051D0007047894270471CF5000F04D5BCF5000FDD
:1051E000F7D5814270474FF0807C1CEB400F38BFF1
:1051F0001CEB410F01D28142704710B500F089F8D5
:10520000922449004FF000504FF08051FFF7B6BE96
:105210004FF47F0C1CEAD0121EBF1CEAD11392EA95
:105220000C0F93EA0C0F00F0478090EA010F48BF83
:1052300042F480724FF0004C4CEA00204CEA01210D
:1052400002EB0302A0FB0113A2F50002002918BF24
:1052500043F001035B0028BF4FEA330342EB2242D5
:105260005FEA132C4CEBC2502EBFBCEB436FB2F580
:105270007C0F70474FEA036CBCF1004F08BF20F071
:105280000100B2F57C0F38BF70470BD582F0FF02EA
:1052900012F5803FC8BF704700F1C040D8BF00F092
:1052A0000040704700F5000C5FEA4C0C48BF7047A7
:1052B000B0F1C04000F073B890EA010F0CEAD113CE
:1052C00048BF42F48072624538BF634504D280EA29
:1052D000010000F00040704710B500F01AF800BF60
:1052E0008900013E00F007B800F009B85FEA410C00
:1052F0005FEA1C6C08D080EA010000F050B85FEA59
:10530000400C5FEA1C6CF6D14FF00040A0F5800025
:1053100070470EF1020E2EF0030E5EF8044B24428D
:1053200004D44FEA4102B2F17F4F11D84FEA400353
:10533000B3F17F4F0CD80ED14FEAD07CB2F17F4F42
:105340000CEB4C0C0CF1020C08BF4CEBD17C04E0D4
:105350004FF0080C01E04FEAD17C0CEB4C0324FA2F
:1053600003F404F00704B4F1040C06D20EEB840C31
:10537000BDE810404CF0010C6047DFE80CF0070876
:1053800002024FF00040A0F5800010BD0846420028
:1053900018BFD2F1807288BF00F0004010BDFF211D
:1053A00041EAD050C005704751EA000C00F113806B
:1053B0001CF5000F58BFBCF5000F01D481427047A7
:1053C00007D711F5000F58BF10F5000F15D4814213
:1053D0007047894270471CF5000F04D5BCF5000FDB
:1053E000F7D5884270474FF0807C1CEB410F38BFE7
:1053F0001CEB400F01D28842704780EA010081EA2D
:10540000000180EA0100FFF7F8BE80F0004090EA5A
:10541000010F7FF558AD81F0004100F008B80000A1
:1054200090EA010F48BF81F000413FF54CAD421AB0
:1054300004D882F00042A0EB020011444FEAD0529F
:105440004FF07F4C1CEA410FA2EBD15318BF9CEAEE
:10545000026F4AD04FF0004C4CEA00204CEA012188
:1054600021FA03FCB0EB0C0C0FD412F0FE0F36D077
:105470005FEA4C001DD5001240EBC25038BF7047A8
:105480001CF03F0F18BF70470BE0A2F101025FEA6A
:105490001C2040EBC25038BF70471CF07F0F18BF74
:1054A0007047C3F12003994014BF401E20F0010053
:1054B000704780084FEA122308BF7047B0FA80FC9B
:1054C000A2EB0C02CCF1280C60FA0CF093EA122F3C
:1054D00004BF00EBC25070474FEAC3707047130A15
:1054E0005FEADC1008BF7047F6E79CEA026F04D061
:1054F00010EA5C0F08BF0020704710B5FFF709FFE6
:1055000040DFF63E81F0004070470CF00F03092B9E
:1055100008BF082000F059800A2B0BD0082B18BFB9
:10552000704708BF1CF0400F0AD04FF000004FF04A
:10553000000170471CF0400F18BF4FF0004070474B
:105540001CF0100F08D020F0704300F07F4242EAB8
:10555000D3014FEA4370704700F0604021F07F4272
:1055600042EA000201F07F4040EA727070474FF05B
:10557000FF0C4CF4E06C1CEA11531CBF9CEA030CBA
:105580009445C2BFDA4201EB02517047002B0DD0A7
:10559000BCF1000F0FD0002A01F00041A4BF41F080
:1055A000E04141F07F614FF00000704701F00041A1
:1055B0004FF00000704750EA01334FF09B0C18BFCA
:1055C0004CF0806C7FF456A870471CF4801F11D0FB
:1055D0001CF4E02F03D06FEACC31490070474FF044
:1055E0004050EFF3008222F0704242EA000282F360
:1055F000008870474FF00000704700000000000076
:1056000004FA97999999D93FAF788E1DC571CC3F0F
:105610009FC678D0099AC33F935555555555E53FD8
:10562000599322942449D23FDE03CB966446C73F68
:1056300044523EDF12F1C23F0000000000000000B3
:1056400060560008000000207800000028010008D3
:10565000D856000878000020980600004401000891
:10566000000000000000000000000000000000003A
:105670000100000000000000000000000000000029
:10568000000000000000000000000000000000001A
:10569000000000000000000000000000000000000A
:1056A00000000000000000000000000000000000FA
:1056B00000A24A04000000000000000001020304F0
:1056C00006070809000000000102030401020304A8
:0856D0000607080902040608A0
:04000005080000ED02
:00000001FF
